{
  "_format": "hh-sol-artifact-1",
  "contractName": "Bank",
  "sourceName": "contracts/Bank.sol",
  "abi": [
    {
      "inputs": [
        {
          "internalType": "address",
          "name": "",
          "type": "address"
        }
      ],
      "name": "balanceOf",
      "outputs": [
        {
          "internalType": "uint256",
          "name": "",
          "type": "uint256"
        }
      ],
      "stateMutability": "view",
      "type": "function"
    },
    {
      "inputs": [],
      "name": "deposit",
      "outputs": [],
      "stateMutability": "payable",
      "type": "function"
    },
    {
      "inputs": [],
      "name": "withdraw",
      "outputs": [],
      "stateMutability": "nonpayable",
      "type": "function"
    }
  ],
  "bytecode": "0x608060405234801561001057600080fd5b506001600081905550610584806100286000396000f3fe6080604052600436106100345760003560e01c80633ccfd60b1461003957806370a0823114610050578063d0e30db01461008d575b600080fd5b34801561004557600080fd5b5061004e610097565b005b34801561005c57600080fd5b50610077600480360381019061007291906102c5565b61014c565b60405161008491906103bf565b60405180910390f35b610095610164565b005b6000600160003373ffffffffffffffffffffffffffffffffffffffff1673ffffffffffffffffffffffffffffffffffffffff168152602001908152602001600020549050610104813373ffffffffffffffffffffffffffffffffffffffff166101bc90919063ffffffff16565b6000600160003373ffffffffffffffffffffffffffffffffffffffff1673ffffffffffffffffffffffffffffffffffffffff1681526020019081526020016000208190555050565b60016020528060005260406000206000915090505481565b34600160003373ffffffffffffffffffffffffffffffffffffffff1673ffffffffffffffffffffffffffffffffffffffff16815260200190815260200160002060008282546101b391906103f6565b92505081905550565b804710156101ff576040517f08c379a00000000000000000000000000000000000000000000000000000000081526004016101f69061039f565b60405180910390fd5b60008273ffffffffffffffffffffffffffffffffffffffff16826040516102259061036a565b60006040518083038185875af1925050503d8060008114610262576040519150601f19603f3d011682016040523d82523d6000602084013e610267565b606091505b50509050806102ab576040517f08c379a00000000000000000000000000000000000000000000000000000000081526004016102a29061037f565b60405180910390fd5b505050565b6000813590506102bf81610537565b92915050565b6000602082840312156102db576102da6104b7565b5b60006102e9848285016102b0565b91505092915050565b60006102ff603a836103e5565b915061030a826104bc565b604082019050919050565b6000610322601d836103e5565b915061032d8261050b565b602082019050919050565b60006103456000836103da565b915061035082610534565b600082019050919050565b6103648161047e565b82525050565b600061037582610338565b9150819050919050565b60006020820190508181036000830152610398816102f2565b9050919050565b600060208201905081810360008301526103b881610315565b9050919050565b60006020820190506103d4600083018461035b565b92915050565b600081905092915050565b600082825260208201905092915050565b60006104018261047e565b915061040c8361047e565b9250827fffffffffffffffffffffffffffffffffffffffffffffffffffffffffffffffff0382111561044157610440610488565b5b828201905092915050565b60006104578261045e565b9050919050565b600073ffffffffffffffffffffffffffffffffffffffff82169050919050565b6000819050919050565b7f4e487b7100000000000000000000000000000000000000000000000000000000600052601160045260246000fd5b600080fd5b7f416464726573733a20756e61626c6520746f2073656e642076616c75652c207260008201527f6563697069656e74206d61792068617665207265766572746564000000000000602082015250565b7f416464726573733a20696e73756666696369656e742062616c616e6365000000600082015250565b50565b6105408161044c565b811461054b57600080fd5b5056fea2646970667358221220905aa0b1755e9c35e8f44401afc1da87b5eef47701ff69f3267c3c1a65e2629e64736f6c63430008070033",
  "linkReferences": {},
  "deployedLinkReferences": {}
}